:100000000EC028C05ACB26C025C024C023C022C0A1
:1000100021C020C01FC01EC01DC01CC01BC0112499
:100020001FBECFE5D2E0DEBFCDBF10E0A0E6B0E05E
:10003000E8E8FCE102C005900D92A036B107D9F7BF
:1000400021E0A0E6B0E001C01D92AE37B207E1F7B3
:10005000D2D918CED5CFC09AC29ABA9AB89A8FEF91
:100060008FB98AE28DB980EF8EB908958EB98BE28F
:1000700097E09A95F1F78DB9B29BFECF93E09A95F0
:10008000F1F700008DB9769BF3CF87E08A95F1F701
:100090008FB19FEF9FB9B89A0895C098C29AB29B4A
:1000A000FECF83E08A95F1F70000C09A87E08A9539
:1000B000F1F7759905C084E080937D0181E0089592
:1000C00080E00895B89AC2988FB980EFCFDFB898D2
:1000D0008EEFCCDF882319F092E090937D01089594
:1000E000C29AC29BFECF97E09A95F1F7C09893E031
:1000F0009A95F1F70000C29893E09A95F1F7000005
:10010000C09A779902C083E004C0DCDF811106C089
:1001100081E080937D0181E090E0089580E090E0AF
:100120000895CF93DF93D82FB898C2981FB880EF67
:100130009DDFC82FB89AD11102C01FB802C08FEF3F
:100140008FB98EEF93DF8C2FDF91CF910895B99AFD
:1001500038B33D7F28B322604FB7F894FC01680F95
:10016000791FE617F70789F0819198E028BB000016
:1001700000C087FF38BB880F000000C000C000C06F
:1001800038BB00C09A9591F7ECCF4FBF08954F92BE
:100190005F926F927F928F929F92AF92BF92CF9217
:1001A000DF92EF92FF920F931F93CF93DF93CDB720
:1001B000DEB72D970FB6F894DEBF0FBECDBF098313
:1001C0001A832B833C834D835E836F837887C9803A
:1001D000DA80EB80FC804D805E806F807884182F01
:1001E000682F70E080E090E0C8DB4B015C0120E00C
:1001F00030E04FE753E4C301B20126DB2B013C01A1
:1002000020E030E04CE252E4C701B6011DDB6A8712
:100210007B878C879D87EEDB7FDB7B01072E000CC5
:10022000880B990BACDB9B01AC016A857B858C85C7
:100230009D85A5DA6A877B878C879D87A3019201BC
:1002400060E070E080E89FE39ADAA50194017ADC2F
:1002500068DB062F2A853B854C855D85C301B2018D
:1002600071DC9B01AC0160E070E080E89FE387DA1D
:10027000A501940167DC55DBD62E2A853B854C858C
:100280005D8560E070E080E89FE379DAA301920188
:1002900059DC9B01AC0160E070E080E89FE36FDA1D
:1002A000A50194014FDC3DDB82E0E816F104A9F0E2
:1002B0004CF4E114F104E1F0EA94EF28A9F4802F62
:1002C0007D2D19C083E0E816F10451F084E0E816B2
:1002D000F10451F4812F762F09C0862F702F0BC0A7
:1002E000812F702F1D2D07C08D2D712F102F03C052
:1002F000802F712F162F612F2D960FB6F894DEBF29
:100300000FBECDBFDF91CF911F910F91FF90EF9066
:10031000DF90CF90BF90AF909F908F907F906F9025
:100320005F904F900895CF93DF93D82FC62F80E42E
:10033000D7DE8D2FC7DE8C2FC5DEDF91CF91ADCEFE
:10034000CF93C82F80E4CCDE8C2FBCDEA6DE81E408
:10035000C7DE81E0E6DEC82FA0DE8C2FCF910895A6
:10036000CF93DF93C82FD62F81E0EADFC85021E07A
:1003700030E0B90102C0660F771FCA95E2F7282F57
:1003800030E0262337236217730719F4D11108C010
:1003900002C0D13029F4682781E0DF91CF91C3CF2B
:1003A000DF91CF910895CF93DF93C82FD62F83E1AC
:1003B000C7DFC85021E030E0B90102C0660F771FE7
:1003C000CA95E2F7282F30E02623372362177307F8
:1003D00019F4D11108C002C0D13029F4682783E193
:1003E000DF91CF91A0CFDF91CF910895CF93DF938D
:1003F000883018F0DF91CF91B3CFC62FD82F80E08F
:100400009FDF682F21E030E002C0220F331FDA9512
:10041000E2F790E0822393232817390719F4C111DA
:1004200008C002C0C13029F4622780E0DF91CF917B
:100430007ACFDF91CF910895CF93DF93C82FD62F36
:100440008830D0F08DE07CDFC85021E030E0B90189
:1004500002C0660F771FCA95E2F7282F30E02623E7
:1004600037236217730719F4D11121C002C0D130AC
:10047000F1F468278DE018C08CE062DF21E030E005
:10048000B90102C0660F771FCA95E2F7282F30E046
:10049000262337236217730719F4D11108C002C04D
:1004A000D13029F468278CE0DF91CF913CCFDF91E8
:1004B000CF910895CF93DF93C82FD62F8830D0F0F7
:1004C00085E03EDFC85021E030E0B90102C0660F90
:1004D000771FCA95E2F7282F30E0262337236217CB
:1004E000730719F4D11121C002C0D130F1F468278B
:1004F00085E018C084E024DF21E030E0B90102C0CB
:10050000660F771FCA95E2F7282F30E0262337239E
:100510006217730719F4D11108C002C0D13029F451
:10052000682784E0DF91CF91FECEDF91CF910895CF
:10053000CF9382E105DFC82F83E102DF2C2F30E06B
:10054000A901582BCA01CF91089562E48AE0EBCE4D
:10055000E199FECF1FBA8EBB6DBBF894E29AE19A87
:1005600078940895E199FECF1FBA8EBBE09A8DB3BF
:10057000089580916500813051F48091640083304A
:1005800030F09AE0909365008250809364008091EF
:1005900065008230A1F480916400823020F091E007
:1005A0009093650002C01092650098E0980F9A3011
:1005B00018F49093640003C082508093640080918B
:1005C000650081110AC080916400811106C081E03C
:1005D0008093650082E080936400809165008111C2
:1005E00003C08AE08093650008950F931F93CF9313
:1005F000DF93C82F162FD42F022F80ED71DD80E0FE
:1006000061DD80E05FDD49DD80ED6ADD81E05ADD9E
:100610008D2F8295807F802B55DD3FDD80ED60DD65
:1006200082E050DD8C2F8295807F812B4BDDDF9126
:10063000CF911F910F9131CDCF9380ED51DD80E0AF
:1006400041DD2BDD81ED4CDD81E06BDDC82F25DD4B
:10065000C170C093610080ED43DD81E033DD1DDDBD
:1006600081ED3EDD81E05DDDC82F17DD8C2F8F70C1
:1006700080936200C0778C2F90E024E09595879559
:100680002A95E1F78093630080ED2ADD82E01ADD90
:1006900004DD81ED25DD81E044DDC82FFEDC8C2FFB
:1006A0008F7080936400C0778C2F90E034E0959534
:1006B00087953A95E1F780936500CF910895CF92A1
:1006C000DF92EF92811110C0262F30E0C9014296CF
:1006D00063E070E0C6DA85589F4FC0906600D09006
:1006E0006700E0906800E6C2813009F062C0262F02
:1006F00030E0C90163E070E0B4DA85589F4FC090E4
:100700006600D0906700E0906800FC01C082D18252
:10071000E282C901019663E070E0A3DA85589F4F39
:10072000FC01C082D182E282C901029663E070E0DE
:1007300098DA85589F4FFC01C082D182E282C901BC
:10074000039663E070E08DDA85589F4FFC01C0820C
:10075000D182E282C901049663E070E082DA8558B2
:100760009F4FFC01C082D182E282C901059663E0FD
:1007700070E077DA85589F4FFC01C082D182E28217
:10078000C901069663E070E06CDA85589F4FFC0162
:10079000C082D182E282C901079663E070E061DA2B
:1007A00085589F4FFC01C082D182E282C901089620
:1007B00050C2823009F042C0262F30E0C9010396B2
:1007C00063E070E04EDA85589F4FC0906600D0908D
:1007D0006700E0906800FC01C082D182E282C9011A
:1007E000049663E070E03DDA85589F4FFC01C082BB
:1007F000D182E282C901059663E070E032DA855861
:100800009F4FFC01C082D182E282C9010C9663E055
:1008100070E027DA85589F4FFC01C082D182E282C6
:10082000C9010D9663E070E01CDA85589F4FFC010A
:10083000C082D182E282C9010E964DC2833009F096
:1008400041C0262F30E0C90163E070E00ADA855824
:100850009F4FC0906600D0906700E0906800FC0158
:10086000C082D182E282C901019663E070E0F9D9C9
:1008700085589F4FFC01C082D182E282C901029655
:1008800063E070E0EED985589F4FFC01C082D182B1
:10089000E282C901039663E070E0E3D985589F4F77
:1008A000FC01C082D182E282C901049663E070E05B
:1008B000D8D985589F4FFC01C082D182E282C901FC
:1008C000059609C2843009F041C0262F30E0C901E5
:1008D00063E070E0C6D985589F4FC0906600D09005
:1008E0006700E0906800FC01C082D182E282C90109
:1008F000019663E070E0B5D985589F4FFC01C08236
:10090000D182E282C901029663E070E0AAD98558DB
:100910009F4FFC01C082D182E282C901069663E04A
:1009200070E09FD985589F4FFC01C082D182E2823E
:10093000C901079663E070E094D985589F4FFC0188
:10094000C082D182E282C9010896BBC0853081F5A0
:10095000262F30E0C90163E070E083D985589F4FAE
:10096000C0906600D0906700E0906800FC01C082F3
:10097000D182E282C901019663E070E072D98558A4
:100980009F4FFC01C082D182E282C901029663E0DE
:1009900070E067D985589F4FFC01C082D182E28206
:1009A000C901099663E070E05CD985589F4F11C07A
:1009B000863009F5262F30E0C901099663E070E022
:1009C00050D985589F4FC0906600D0906700E09046
:1009D0006800FC01C082D182E282C9010A9663E00C
:1009E00070E03FD985589F4FFC01C082D182E282DE
:1009F000C9010B9670C1873009F041C0262F30E045
:100A0000C90163E070E02DD985589F4FC090660002
:100A1000D0906700E0906800FC01C082D182E28241
:100A2000C901019663E070E01CD985589F4FFC0115
:100A3000C082D182E282C901029663E070E011D9DE
:100A400085589F4FFC01C082D182E282C901039682
:100A500063E070E006D985589F4FFC01C082D182C7
:100A6000E282C901049663E070E0FBD885589F4F8D
:100A7000FC01C082D182E282C9010596EAC08930B8
:100A800009F041C0262F30E0C90163E070E0E9D8E9
:100A900085589F4FC0906600D0906700E090680036
:100AA000FC01C082D182E282C901019663E070E05C
:100AB000D8D885589F4FFC01C082D182E282C901FB
:100AC000029663E070E0CDD885589F4FFC01C0824C
:100AD000D182E282C9010F9663E070E0C2D88558E6
:100AE0009F4FFC01C082D182E282C901409663E03F
:100AF00070E0B7D885589F4FFC01C082D182E28256
:100B0000C9014196E8C08A3009F0EEC0262F30E0D6
:100B1000C90163E070E0A5D885589F4FC09066007A
:100B2000D0906700E0906800FC01C082D182E28230
:100B3000C901019663E070E094D885589F4FFC018D
:100B4000C082D182E282C901029663E070E089D856
:100B500085589F4FFC01C082D182E282C901039671
:100B600063E070E07ED885589F4FFC01C082D1823F
:100B7000E282C901049663E070E073D885589F4F04
:100B8000FC01C082D182E282C901059663E070E077
:100B900068D885589F4FFC01C082D182E282C9018A
:100BA000069663E070E05DD885589F4FFC01C082D7
:100BB000D182E282C901079663E070E052D885587D
:100BC0009F4FFC01C082D182E282C901089663E096
:100BD00070E047D885589F4FFC01C082D182E282E5
:100BE000C901099663E070E03CD885589F4FFC012D
:100BF000C082D182E282C9010A9663E070E031D8F6
:100C000085589F4FFC01C082D182E282C9010B96B8
:100C100063E070E026D885589F4FFC01C082D182E6
:100C2000E282C9010C9663E070E01BD885589F4FA3
:100C3000FC01C082D182E282C9010D9663E070E0BE
:100C400010D885589F4FFC01C082D182E282C90131
:100C50000E9663E070E005D885589F4FFC01C08276
:100C6000D182E282C9010F9663E070E0FAD785581D
:100C70009F4FFC01C082D182E282C901409663E0AD
:100C800070E0EFD785589F4FFC01C082D182E2828D
:100C9000C901419663E070E0E4D785589F4FFC019D
:100CA000C082D182E282C901429663E070E0D9D766
:100CB00085589F4FFC01C082D182E282C9014396D0
:100CC00063E070E0CED785589F4FFC01C082D1828F
:100CD000E282C901449663E070E0C3D785589F4F14
:100CE000FC01C082D182E282EF90DF90CF90089524
:100CF0000F931F93CF93DF93162FD42FC22F60E053
:100D0000DEDC65E1812FDBDC6CE28D2FD8DC61E479
:100D10008C2FD5DC002391F08091660090916700C4
:100D2000A09168008093F9009093FA00A093FB00D3
:100D30008093FC009093FD00A093FE00DF91CF9183
:100D40001F910F9108955F926F927F928F929F9261
:100D5000AF92BF92CF92DF92EF92FF920F931F93C9
:100D6000CF93DF93F894E4DBD82FC0E0812C912C53
:100D70003FE7A32E33E4B32E49E0742E56E0552E00
:100D800062E0662ED0FF5EC1D3DBD82F10926900DF
:100D900010926A0010926B0010926C0080926D00AD
:100DA00090926E00A0926F00B092700080917A00D5
:100DB00080937100E12CF12CC70163E070E051D702
:100DC00085589F4F6C010091690010916A00209135
:100DD0006B0030916C0040916D0050916E006091FD
:100DE0006F007091700080917100D1D9F60160831D
:100DF00071838283FFEFEF1AFF0A26E5E216F10402
:100E0000D9F610926D0010926E0010926F00109241
:100E10007000C11128C0E12CF12CC70163E070E023
:100E200020D785589F4F6C010091690010916A008E
:100E300020916B0030916C0040916D0050916E00DC
:100E400060916F007091700080917100A0D9F601DF
:100E5000608371838283FFEFEF1AFF0A25E1E216B8
:100E6000F104D9F62BC0C13009F044C025E1E22ECF
:100E7000F12CC70163E070E0F4D685589F4F6C01F8
:100E80000091690010916A0020916B0030916C0014
:100E900040916D0050916E0060916F0070917000F4
:100EA0008091710074D9F601608371838283FFEFB2
:100EB000EF1AFF0A2CE2E216F104D9F60091610064
:100EC0002091620040916300609164008091650010
:100ED0000FDF62E071E08BE790E039D98FEF91EEA0
:100EE000E4E081509040E040E1F700C00000D3FF13
:100EF00058C05BC0C23049F59CE2E92EF12CC70115
:100F000063E070E0AED685589F4F6C010091690098
:100F100010916A0020916B0030916C0040916D003F
:100F200050916E0060916F0070917000809171001F
:100F30002ED9F601608371838283FFEFEF1AFF0AD7
:100F400021E4E216F104D9F6B9CFC33009F0B6CFE7
:100F500081E4E82EF12CC70163E070E082D6855869
:100F60009F4F6C010091690010916A0020916B0005
:100F700030916C0040916D0050916E0060916F0057
:100F8000709170008091710002D9F60160837183C5
:100F90008283FFEFEF1AFF0A26E5E216F104D9F685
:100FA0008DCFCF5FC43008F0C0E0D4FD2DC0C1119B
:100FB00009C0809165008F5F833008F45DC0109296
:100FC000650022C0C13049F4809164008F5F8A308F
:100FD00008F458C01092640017C0C23059F48091D0
:100FE00063008F5F873018F4809363000DC0109208
:100FF00063000AC0C33041F4809162008F5F8A3081
:1010000008F03DC080936200D5FDBCCEC11107C081
:10101000809165008150C8F560926500B3CEC13003
:1010200041F480916400815008F03FC070926400E8
:10103000A9CEC23069F5809163008150C8F5509205
:101040006300A0CE20916200409163006091640033
:1010500080916500CADA7894DF91CF911F910F914A
:10106000FF90EF90DF90CF90BF90AF909F908F90C8
:101070007F906F905F90089580936500C5CF109228
:101080006200C2CF80936400BFCF809365007ACEA8
:10109000C33009F077CE80916200815018F08093C0
:1010A000620070CE709262006DCE809364006ACE52
:1010B0008093630067CECF92DF92EF92FF920F93FF
:1010C0001F93CF93DF9380916000811192C0C0E0A5
:1010D000D0E089E0E2E7F0E0A9E6B0E001900D920F
:1010E0008A95E1F7BE010D2E000C880B990B47D4B1
:1010F00020E030E040E05FE325D5209169003091A9
:101100006A0040916B0050916C003AD36B017C01F6
:1011100020E030E04FE753E411D518164CF0C092B0
:101120006900D0926A00E0926B00F0926C000FC0F0
:1011300020E030E04FE753E4C701B60120D36093CD
:10114000690070936A0080936B0090936C00CE01ED
:1011500063E070E086D585589F4F7C01009169005F
:1011600010916A0020916B0030916C0040916D00ED
:1011700050916E0060916F007091700080917100CD
:1011800006D8F7016083718382832196C635D10525
:1011900009F09FCF20E030E040E05FE36091720013
:1011A000709173008091740090917500E9D26B0189
:1011B0007C0120E030E04FE753E4C0D418164CF037
:1011C000C0927200D0927300E0927400F0927500A9
:1011D00009C120E030E04FE753E4C701B601CFD2A8
:1011E0006093720070937300809374009093750005
:1011F000F9C0813089F510926D0010926E00109246
:101200006F001092700080917A0080937100C0E0AE
:10121000D0E0CE0163E070E024D585589F4F7C017B
:101220000091690010916A0020916B0030916C0070
:1012300040916D0050916E0060916F007091700050
:1012400080917100A4D7F701608371838283219616
:10125000C635D105F1F6C6C08230E9F580E090E0F0
:10126000AFE7B3E480936D0090936E00A0936F009E
:10127000B093700080917A008093710010926900A1
:1012800010926A0010926B0010926C00C0E0D0E0E7
:10129000CE0163E070E0E5D485589F4F7C0100915A
:1012A000690010916A0020916B0030916C004091B0
:1012B0006D0050916E0060916F0070917000809190
:1012C000710065D7F7016083718382832196C635EB
:1012D000D105F1F687C0833009F041C080E090E08D
:1012E000AFE7B3E480936D0090936E00A0936F001E
:1012F000B093700080917A008093710080E090E05C
:10130000ABE2B3E48093690090936A00A0936B0012
:10131000B0936C00C0E0D0E0CE0163E070E0A1D4F7
:1013200085589F4F7C010091690010916A002091BF
:101330006B0030916C0040916D0050916E00609197
:101340006F00709170008091710021D7F701608368
:10135000718382832196C635D105F1F643C084306E
:1013600009F040C080E090E0AFE7B3E480936D0007
:1013700090936E00A0936F00B093700080917A00FC
:101380008093710080E090E0AAEAB2E48093690063
:1013900090936A00A0936B00B0936C00C0E0D0E023
:1013A000CE0163E070E05DD485589F4F7C010091D1
:1013B000690010916A0020916B0030916C0040919F
:1013C0006D0050916E0060916F007091700080917F
:1013D0007100DDD6F7016083718382832196C63563
:1013E000D105F1F6DF91CF911F910F91FF90EF9012
:1013F000DF90CF9008952FD680E090E0A8EFB2E480
:101400008093720090937300A0937400B093750062
:1014100080E090E0AFE7B3E48093760090937700AC
:10142000A0937800B093790081E09CD880937A00F3
:1014300083E098D88093600085E08093650086E023
:101440008093640087E08093630088E0809362006B
:1014500061E080E0CBD760E088E082D760E08AE09E
:101460007FD760E089E07CD761E080E0E5D761E08C
:1014700081E0E2D761E082E0DFD761E083E0DCD7A2
:1014800061E084E0D9D761E085E0D6D761E080E013
:1014900011D861E081E00ED861E082E00BD861E014
:1014A00083E008D861E084E005D861E085E002D8F7
:1014B0004CD88FE99FE00197F1F700C0000038D8C1
:1014C0008BB780628BBFAB9A7894F5DD9FEF21EEEE
:1014D00084E0915020408040E1F700C00000ACD88B
:1014E00048D80091610020916200409163006091B2
:1014F000640080916500FCDB62E071E08BE790E0C6
:1015000026D6E3CFDF92EF92FF920F931F93CF93F4
:10151000DF93F8940DD8C82FD0E0F12C8FE7E82E98
:1015200093E4D92EC2FF73C003D8C82FC4DD2FEFB8
:1015300081EE94E0215080409040E1F700C000002F
:101540007BD817D800916100209162004091630020
:101550006091640080916500CBDB1092690010926D
:101560006A0010926B0010926C004D2F8D2F9F2DF2
:10157000AE2DBD2D80936D0090936E00A0936F00F3
:10158000B093700080917A008093710000E0109118
:101590006A0020916B0030916C0050916E00609158
:1015A0006F0070917000F3D56093F9007093FA00AA
:1015B0008093FB000091690010916A0020916B00FC
:1015C00030916C0040916D0050916E0060916F0001
:1015D0007091700080917100DAD56093FC00709377
:1015E000FD008093FE0062E071E08BE790E0AFD5F4
:1015F000C4FD05C080917A008B5F80937A00C5FDA1
:1016000091CF80917A00855080937A008BCF609142
:101610007A0081E09DD77894DF91CF911F910F914F
:10162000FF90EF90DF9008950F93CF93DF93F8949E
:101630007FD7C82FD4E0C1FF37C07AD7C82F3BDD92
:101640002FEF81EE94E0215080409040E1F700C000
:101650000000F2D78ED70091610020916200409186
:101660006300609164008091650042DB62E071E09C
:101670008BE790E06CD5C4FD0AC0809160008F5F5D
:10168000853018F48093600002C010926000C5FDA0
:10169000D2CF809160008150863018F48093600032
:1016A000CACFD0936000C7CF6091600083E050D76D
:1016B0007894DF91CF910F9108951F920F920FB6FA
:1016C0000F9211242F933F934F935F936F937F93C8
:1016D0008F939F93AF93BF93CF93EF93FF9328D7AD
:1016E000C82F8FE39CE90197F1F700C00000C0FD0F
:1016F0000DC061E088E057D69FEF21EE84E0915065
:1017000020408040E1F700C000001DDBC1FD0DC09E
:1017100061E089E048D69FEF21EE84E091502040BF
:101720008040E1F700C000007FDFC2FD0DC061E036
:101730008AE039D69FEF21EE84E09150204080402E
:10174000E1F700C00000DEDE60E088E02CD660E05B
:1017500089E029D660E08AE026D6FF91EF91CF910B
:10176000BF91AF919F918F917F916F915F914F91B9
:101770003F912F910F900FBE0F901F9018955058CA
:10178000BB27AA270ED089C17AD130F07FD120F0B3
:1017900031F49F3F11F41EF46FC10EF4E095E7FBA6
:1017A0003CC1E92F8BD180F3BA1762077307840716
:1017B000950718F071F49EF5BAC10EF4E0950B2E62
:1017C000BA2FA02D0B01B90190010C01CA01A00193
:1017D0001124FF27591B99F0593F50F4503E68F1EE
:1017E0001A16F040A22F232F342F4427585FF3CF2F
:1017F000469537952795A795F0405395C9F77EF400
:101800001F16BA0B620B730B840BBAF09150A1F048
:10181000FF0FBB1F661F771F881FC2F70EC0BA0FCE
:10182000621F731F841F48F4879577956795B79556
:10183000F7959E3F08F0B3CF9395880F08F099274E
:10184000EE0F9795879508950CD027C11FD140F0D2
:1018500016D130F021F45F3F19F0DFC0511168C19B
:101860000BC12CD198F39923C9F35523B1F3951BE0
:10187000550BBB27AA2762177307840738F09F5FB1
:101880005F4F220F331F441FAA1FA9F333D00E2E20
:101890003AF0E0E830D091505040E695001CCAF78D
:1018A00029D0FE2F27D0660F771F881FBB1F261752
:1018B00037074807AB07B0E809F0BB0B802DBF0125
:1018C000FF2793585F4F2AF09E3F510568F0A5C04F
:1018D0002FC15F3FECF3983EDCF3869577956795D3
:1018E000B795F7959F5FC9F7880F911D96958795D6
:1018F00097F90895E1E0660F771F881FBB1F6217F5
:1019000073078407BA0720F0621B730B840BBA0BB2
:10191000EE1F88F7E095089504D06894B11108C1CE
:101920000895D4D088F09F5790F0B92F9927B751D8
:10193000A0F0D1F0660F771F881F991F1AF0BA9593
:10194000C9F712C0B13081F0F2D0B1E00895EFC014
:10195000672F782F8827B85F39F0B93FCCF3869589
:1019600077956795B395D9F73EF4909580957095E6
:1019700061957F4F8F4F9F4F0895E89409C097FB63
:101980003EF490958095709561957F4F8F4F9F4F56
:101990009923A9F0F92F96E9BB279395F69587959A
:1019A00077956795B795F111F8CFFAF4BB0F11F45D
:1019B00060FF1BC06F5F7F4F8F4F9F4F16C0882304
:1019C00011F096E911C0772321F09EE8872F762F3A
:1019D00005C0662371F096E8862F70E060E02AF07B
:1019E0009A95660F771F881FDAF7880F9695879567
:1019F00097F9089585D080F09F3740F491110EF04B
:101A000097C060E070E080E89FEB089526F41B1615
:101A1000611D711D811D07C021C097F99F6780E876
:101A200070E060E00895882371F4772321F09850E6
:101A3000872B762F07C0662311F499270DC090518C
:101A4000862B70E060E02AF09A95660F771F881F5A
:101A5000DAF7880F9695879597F908959F3F31F0AB
:101A6000915020F4879577956795B795880F911DCC
:101A70009695879597F908959FEF80EC0895002437
:101A80000A941616170618060906089500240A94E3
:101A900012161306140605060895092E0394000C69
:101AA00011F4882352F0BB0F40F4BF2B11F460FFF8
:101AB00004C06F5F7F4F8F4F9F4F089557FD905821
:101AC000440F551F59F05F3F71F04795880F97FB02
:101AD000991F61F09F3F79F08795089512161306BC
:101AE0001406551FF2CF4695F1DF08C016161706EB
:101AF0001806991FF1CF8695710561050894089520
:101B0000E5DFA0F0BEE7B91788F4BB279F3860F483
:101B10001616B11D672F782F8827985FF7CF869507
:101B200077956795B11D93959639C8F30895E89414
:101B3000BB2766277727CB0197F908956ED008F465
:101B40008FEF08950AD0A9CF9ADF28F09FDF18F011
:101B5000952309F062CF90CFEBCFB0DFA8F39923A4
:101B6000D9F35523C9F3950F50E0551FAA27EE2747
:101B7000FF27BB2700240894679520F4E20FF31F8A
:101B8000B41F0A1E220F331F441FAA1F6695A9F710
:101B9000779530F4F30FB41F0A1E121E08F46395F4
:101BA000330F441FAA1F221F769599F7879520F4BB
:101BB000B40F0A1E121E631F440FAA1F221F331FD9
:101BC0008695A9F7862F712D602D11249F575040BF
:101BD0008AF0E1F088234AF0EE0FFF1FBB1F661F5B
:101BE000771F881F91505040A9F79E3F510570F014
:101BF00014CF9ECF5F3FECF3983EDCF3869577954C
:101C00006795B795F795E7959F5FC1F7FE2B880F0E
:101C1000911D9695879597F90895990F0008550F8E
:101C2000AA0BE0E8FEEF16161706E807F907C0F062
:101C300012161306E407F50798F0621B730B840B6A
:101C4000950B39F40A2661F0232B242B252B21F444
:101C500008950A2609F4A140A6958FEF811D811DE4
:101C600008950024552704C0080E591F880F991F96
:101C7000009729F076956795B8F37105B9F7802D2F
:081C8000952F0895F894FFCFA1
:00000001FF
