S0240000436C6F636B5F575332383132425F41544D4547413332385F526576312E7372656394
S11300000EC028C0C0CA26C025C024C023C022C038
S113001021C020C01FC01EC01DC01CC01BC0112495
S11300201FBECFE5D2E0DEBFCDBF10E0A0E6B0E05A
S1130030E0EEFAE102C005900D92A036B107D9F7BF
S113004021E0A0E6B0E001C01D92AD37B207E1F7B0
S1130050AFD944CDD5CFC09AC29ABA9AB89A8FEF85
S11300608FB98AE28DB980EF8EB908958EB98BE28B
S113007097E09A95F1F78DB9B29BFECF93E09A95EC
S1130080F1F700008DB9769BF3CF87E08A95F1F7FD
S11300908FB19FEF9FB9B89A0895C098C29AB29B46
S11300A0FECF83E08A95F1F70000C09A87E08A9535
S11300B0F1F7759905C084E080937C0181E008958F
S11300C080E00895B89AC2988FB980EFCFDFB898CE
S11300D08EEFCCDF882319F092E090937C01089591
S11300E0C29AC29BFECF97E09A95F1F7C09893E02D
S11300F09A95F1F70000C29893E09A95F1F7000001
S1130100C09A779906C083E080937C0181E090E0F7
S11301100895D8DF811106C081E080937C0181E0DD
S113012090E0089580E090E00895CF93DF93D82F76
S1130130B898C2981FB880EF99DFC82FB89AD11128
S113014002C01FB802C08FEF8FB98EEF8FDF8C2FE4
S1130150DF91CF910895B99A28B32D7F38B33260D7
S11301604FB7F89461157105B1F0FC01680F791F60
S1130170919188E038BB000000C097FF28BB990F1D
S1130180000000C000C000C028BB00C08A9591F7E1
S1130190E617F70769F74FBF08954F925F926F9282
S11301A07F928F929F92AF92BF92CF92DF92EF9203
S11301B0FF920F931F93CF93DF93CDB7DEB72D97A5
S11301C00FB6F894DEBF0FBECDBF09831A832B830D
S11301D03C834D835E836F837887C980DA80EB80AC
S11301E0FC804D805E806F807884182F682F70E0CB
S11301F080E090E0FFDA4B015C0120E030E04FE763
S113020053E4C301B2015DDA2B013C0120E030E08C
S11302104CE252E4C701B60154DA6A877B878C87C3
S11302209D8725DBB6DA7B01072E000C880B990B22
S1130230E3DA9B01AC016A857B858C859D85DCD9DD
S11302406A877B878C879D87A301920160E070E0B9
S113025080E89FE3D1D9A5019401B1DB9FDA062F91
S11302602A853B854C855D85C301B201A8DB9B01D2
S1130270AC0160E070E080E89FE3BED9A501940181
S11302809EDB8CDAD62E2A853B854C855D8560E025
S113029070E080E89FE3B0D9A301920190DB9B0159
S11302A0AC0160E070E080E89FE3A6D9A501940169
S11302B086DB74DA82E0E816F104A1F03CF4E11480
S11302C0F104F9F0EA94EF2851F017C083E0E8163E
S11302D0F10459F084E0E816F10459F00EC0802FBF
S11302E07D2D12C0862F702F0FC0812F702F1D2DD2
S11302F00BC0812F762F102F07C08D2D712F102F3B
S113030003C0802F712F162F612F2D960FB6F894EE
S1130310DEBF0FBECDBFDF91CF911F910F91FF9034
S1130320EF90DF90CF90BF90AF909F908F907F9091
S11303306F905F904F90089586B38871E9F70895A0
S1130340E199FECF1FBA8EBB6DBBF894E29AE19A95
S113035078940895E199FECF1FBA8EBBE09A8DB3CD
S1130360089580916400813059F480916300833052
S113037078F19AE09093640082508093630008952A
S11303808230A1F480916300823020F091E0909358
S1130390640002C01092640098E0980F9A3018F438
S11303A09093630003C08250809363008091640043
S11303B081110EC080916300811107C081E0809398
S11303C0640082E08093630008958AE0809364006F
S11303D008950F931F93CF93DF93C82F162FD42F15
S11303E0022F80ED7DDE80E06DDE80E06BDE55DE89
S11303F080ED76DE81E066DE8D2F8295807F802B16
S113040061DE4BDE80ED6CDE82E05CDE8C2F82955B
S1130410807F812B57DE41DEDF91CF911F910F91B9
S11304200895CF9380ED5CDE80E04CDE36DE81ED16
S113043057DE81E07ADEC82F30DEC170C0936000E1
S113044080ED4EDE81E03EDE28DE81ED49DE81E096
S11304506CDEC82F22DE8C2F8F7080936100C077F2
S11304608C2F90E09595879595958795959587958B
S1130470959587958093620080ED32DE82E022DEDE
S11304800CDE81ED2DDE81E050DEC82F06DE8C2FE0
S11304908F7080936300C0778C2F90E0959587953B
S11304A095958795959587959595879580936400FF
S11304B0CF910895CF92DF92EF92811132C0262F0F
S11304C030E0A9014E5E5F4FFA01EE0FFF1F4E0FA1
S11304D05F1FFA01E658FF4FC0906500D090660098
S11304E0E0906700C082D182E282A9014D5E5F4F35
S11304F0FA01EE0FFF1F4E0F5F1FFA01E658FF4F80
S1130500C082D182E2822C5E3F4FF901EE0FFF1FC1
S11305102E0F3F1FF901E658FF4FC082D182E282BD
S113052038C1813009F0D6C0262F30E0F901EE0F32
S1130530FF1FE20FF31FE658FF4FC0906500D090F5
S11305406600E0906700C082D182E282A9014F5F19
S11305505F4FFA01EE0FFF1F4E0F5F1FFA01E658BF
S1130560FF4FC082D182E282A9014E5F5F4FFA0140
S1130570EE0FFF1F4E0F5F1FFA01E658FF4FC082B8
S1130580D182E282A9014D5F5F4FFA01EE0FFF1F96
S11305904E0F5F1FFA01E658FF4FC082D182E282FC
S11305A0A9014C5F5F4FFA01EE0FFF1F4E0F5F1F53
S11305B0FA01E658FF4FC082D182E282A9014B5F63
S11305C05F4FFA01EE0FFF1F4E0F5F1FFA01E6584F
S11305D0FF4FC082D182E282A9014A5F5F4FFA01D4
S11305E0EE0FFF1F4E0F5F1FFA01E658FF4FC08248
S11305F0D182E282A901495F5F4FFA01EE0FFF1F2A
S11306004E0F5F1FFA01E658FF4FC082D182E2828B
S1130610A901485F5F4FFA01EE0FFF1F4E0F5F1FE6
S1130620FA01E658FF4FC082D182E282A901415FFC
S11306305F4FFA01EE0FFF1F4E0F5F1FFA01E658DE
S1130640FF4FC082D182E282A901405F5F4FFA016D
S1130650EE0FFF1F4E0F5F1FFA01E658FF4FC082D7
S1130660D182E282A9014F5E5F4FFA01EE0FFF1FB4
S11306704E0F5F1FFA01E658FF4FC082D182E2821B
S1130680A9014E5E5F4FFA01EE0FFF1F4E0F5F1F71
S1130690FA01E658FF4FC082D182E282A9014D5E81
S11306A05F4FFA01EE0FFF1F4E0F5F1FFA01E6586E
S11306B0FF4FC082D182E2822C5E3F4FF901EE0FE0
S11306C0FF1F2E0F3F1FF901E658FF4FC082D18252
S11306D0E282BAC0823009F05CC0262F30E0A90162
S11306E04D5F5F4FFA01EE0FFF1F4E0F5F1FFA01C0
S11306F0E658FF4FC0906500D0906600E090670018
S1130700C082D182E282A9014C5F5F4FFA01EE0FF1
S1130710FF1F4E0F5F1FFA01E658FF4FC082D182C0
S1130720E282A9014B5F5F4FFA01EE0FFF1F4E0FEC
S11307305F1FFA01E658FF4FC082D182E282A9010D
S1130740445F5F4FFA01EE0FFF1F4E0F5F1FFA0168
S1130750E658FF4FC082D182E282A901435F5F4F16
S1130760FA01EE0FFF1F4E0F5F1FFA01E658FF4F0D
S1130770C082D182E282225F3F4FF901EE0FFF1F58
S11307802E0F3F1FF901E658FF4FC082D182E2824B
S1130790E0C0833009F058C0262F30E0F901EE0F95
S11307A0FF1FE20FF31FE658FF4FC0906500D09083
S11307B06600E0906700C082D182E282A9014F5FA7
S11307C05F4FFA01EE0FFF1F4E0F5F1FFA01E6584D
S11307D0FF4FC082D182E282A9014E5F5F4FFA01CE
S11307E0EE0FFF1F4E0F5F1FFA01E658FF4FC08246
S11307F0D182E282A9014D5F5F4FFA01EE0FFF1F24
S11308004E0F5F1FFA01E658FF4FC082D182E28289
S1130810A9014C5F5F4FFA01EE0FFF1F4E0F5F1FE0
S1130820FA01E658FF4FC082D182E2822B5F3F4F2C
S1130830F901EE0FFF1F2E0F3F1FF901E658FF4F7E
S1130840C082D182E282E0C0843009F082C0262FC7
S113085030E0F901EE0FFF1FE20FF31FE658FF4FE0
S1130860C0906500D0906600E0906700C082D1829D
S1130870E282A9014F5F5F4FFA01EE0FFF1F4E0F97
S11308805F1FFA01E658FF4FC082D182E282A901BC
S11308904E5F5F4FFA01EE0FFF1F4E0F5F1FFA010D
S11308A0E658FF4FC082D182E282A9014A5F5F4FBE
S11308B0FA01EE0FFF1F4E0F5F1FFA01E658FF4FBC
S11308C0C082D182E282A901495F5F4FFA01EE0F33
S11308D0FF1F4E0F5F1FFA01E658FF4FC082D182FF
S11308E0E282A901485F5F4FFA01EE0FFF1F4E0F2E
S11308F05F1FFA01E658FF4FC082D182E282A9014C
S1130900415F5F4FFA01EE0FFF1F4E0F5F1FFA01A9
S1130910E658FF4FC082D182E282A901405F5F4F57
S1130920FA01EE0FFF1F4E0F5F1FFA01E658FF4F4B
S1130930C082D182E2822F5E3F4FF901EE0FFF1F8A
S11309402E0F3F1FF901E658FF4FC082D182E28289
S11309508FC0853009F058C0262F30E0F901EE0F22
S1130960FF1FE20FF31FE658FF4FC0906500D090C1
S11309706600E0906700C082D182E282A9014F5FE5
S11309805F4FFA01EE0FFF1F4E0F5F1FFA01E6588B
S1130990FF4FC082D182E282A9014E5F5F4FFA010C
S11309A0EE0FFF1F4E0F5F1FFA01E658FF4FC08284
S11309B0D182E282A901475F5F4FFA01EE0FFF1F68
S11309C04E0F5F1FFA01E658FF4FC082D182E282C8
S11309D0A901465F5F4FFA01EE0FFF1F4E0F5F1F25
S11309E0FA01E658FF4FC082D182E282255F3F4F71
S11309F0F901EE0FFF1F2E0F3F1FF901E658FF4FBD
S1130A00C082D182E282E2C0863091F5262F30E0A6
S1130A10A901475F5F4FFA01EE0FFF1F4E0F5F1FE3
S1130A20FA01E658FF4FC0906500D0906600E09050
S1130A306700C082D182E282A901465F5F4FFA015A
S1130A40EE0FFF1F4E0F5F1FFA01E658FF4FC082E3
S1130A50D182E282255F3F4FF901EE0FFF1F2E0F77
S1130A603F1FF901E658FF4FC082D182E28208C1DC
S1130A70873009F0ABC070E0FB01EE0FFF1FE60FFB
S1130A80F71FE658FF4F8091650090916600A09192
S1130A90670080839183A2839B012F5F3F4FF901FD
S1130AA0EE0FFF1F2E0F3F1FF901E658FF4F808303
S1130AB09183A2839B012E5F3F4FF901EE0FFF1F2D
S1130AC02E0F3F1FF901E658FF4F80839183A283C5
S1130AD09B012D5F3F4FF901EE0FFF1F2E0F3F1FAC
S1130AE0F901E658FF4F80839183A2839B012C5F19
S1130AF03F4FF901EE0FFF1F2E0F3F1FF901E6587C
S1130B00FF4F80839183A2839B012B5F3F4FF901A9
S1130B10EE0FFF1F2E0F3F1FF901E658FF4F808392
S1130B209183A2839B01215F3F4FF901EE0FFF1FC9
S1130B302E0F3F1FF901E658FF4F80839183A28354
S1130B409B01205F3F4FF901EE0FFF1F2E0F3F1F48
S1130B50F901E658FF4F80839183A2839B012F5EA6
S1130B603F4FF901EE0FFF1F2E0F3F1FF901E6580B
S1130B70FF4F80839183A2839B012E5E3F4FF90137
S1130B80EE0FFF1F2E0F3F1FF901E658FF4F808322
S1130B909183A2839B012D5E3F4FF901EE0FFF1F4E
S1130BA02E0F3F1FF901E658FF4F80839183A283E4
S1130BB06C5E7F4FFB01EE0FFF1F6E0F7F1FFB016B
S1130BC0E658FF4F80839183A28385C1893009F061
S1130BD057C070E0FB01EE0FFF1FE60FF71FE6584A
S1130BE0FF4F8091650090916600A091670080831B
S1130BF09183A2839B012F5F3F4FF901EE0FFF1FEB
S1130C002E0F3F1FF901E658FF4F80839183A28383
S1130C109B012E5F3F4FF901EE0FFF1F2E0F3F1F69
S1130C20F901E658FF4F80839183A2839B01215FE2
S1130C303F4FF901EE0FFF1F2E0F3F1FF901E6583A
S1130C40FF4F80839183A2839B01205F3F4FF90173
S1130C50EE0FFF1F2E0F3F1FF901E658FF4F808351
S1130C609183A2836F5E7F4FFB01EE0FFF1F6E0F18
S1130C707F1FFB01E658FF4F80839183A2832BC122
S1130C808A3009F028C170E0FB01EE0FFF1FE60F68
S1130C90F71FE658FF4F8091650090916600A09180
S1130CA0670080839183A2839B012F5F3F4FF901EB
S1130CB0EE0FFF1F2E0F3F1FF901E658FF4F8083F1
S1130CC09183A2839B012E5F3F4FF901EE0FFF1F1B
S1130CD02E0F3F1FF901E658FF4F80839183A283B3
S1130CE09B012D5F3F4FF901EE0FFF1F2E0F3F1F9A
S1130CF0F901E658FF4F80839183A2839B012C5F07
S1130D003F4FF901EE0FFF1F2E0F3F1FF901E65869
S1130D10FF4F80839183A2839B012B5F3F4FF90197
S1130D20EE0FFF1F2E0F3F1FF901E658FF4F808380
S1130D309183A2839B012A5F3F4FF901EE0FFF1FAE
S1130D402E0F3F1FF901E658FF4F80839183A28342
S1130D509B01295F3F4FF901EE0FFF1F2E0F3F1F2D
S1130D60F901E658FF4F80839183A2839B01285F9A
S1130D703F4FF901EE0FFF1F2E0F3F1FF901E658F9
S1130D80FF4F80839183A2839B01275F3F4FF9012B
S1130D90EE0FFF1F2E0F3F1FF901E658FF4F808310
S1130DA09183A2839B01265F3F4FF901EE0FFF1F42
S1130DB02E0F3F1FF901E658FF4F80839183A283D2
S1130DC09B01255F3F4FF901EE0FFF1F2E0F3F1FC1
S1130DD0F901E658FF4F80839183A2839B01245F2E
S1130DE03F4FF901EE0FFF1F2E0F3F1FF901E65889
S1130DF0FF4F80839183A2839B01235F3F4FF901BF
S1130E00EE0FFF1F2E0F3F1FF901E658FF4F80839F
S1130E109183A2839B01225F3F4FF901EE0FFF1FD5
S1130E202E0F3F1FF901E658FF4F80839183A28361
S1130E309B01215F3F4FF901EE0FFF1F2E0F3F1F54
S1130E40F901E658FF4F80839183A2839B01205FC1
S1130E503F4FF901EE0FFF1F2E0F3F1FF901E65818
S1130E60FF4F80839183A2839B012F5E3F4FF90143
S1130E70EE0FFF1F2E0F3F1FF901E658FF4F80832F
S1130E809183A2839B012E5E3F4FF901EE0FFF1F5A
S1130E902E0F3F1FF901E658FF4F80839183A283F1
S1130EA09B012D5E3F4FF901EE0FFF1F2E0F3F1FD9
S1130EB0F901E658FF4F80839183A2836C5E7F4FD4
S1130EC0FB01EE0FFF1F6E0F7F1FFB01E658FF4F64
S1130ED080839183A283EF90DF90CF9008950F9346
S1130EE01F93CF93DF93162FD42FC22F60E0E2DA43
S1130EF065E1812FDFDA6CE28D2FDCDA61E48C2F7F
S1130F00D9DA002391F08091650090916600A09158
S1130F1067008093F8009093F900A093FA008093FF
S1130F20FB009093FC00A093FD00DF91CF911F91F3
S1130F300F9108954F925F927F928F929F92AF92FA
S1130F40BF92CF92DF92EF92FF920F931F93CF93B2
S1130F50DF93F894712C0F2EF8E6CF2EF0E0DF2EFD
S1130F60F02D0F2E812C912CFFE7AF2EF3E4BF2E32
S1130F70F02D0F2EF1E74F2EF0E05F2EF02D86B30B
S1130F80887109F43EC12FEF81EE94E02150804036
S1130F909040E1F700C00000F60110821182128235
S1130FA0138284829582A682B782F2018085F6013B
S1130FB08087E12CF12CE701CC0FDD1FCE0DDF1D66
S1130FC0C658DF4F009168001091690020916A00B3
S1130FD030916B0040916C0050916D0060916E00F7
S1130FE070916F0080917000D8D8688379838A8368
S1130FF0FFEFEF1AFF0A26E5E216F104E1F6F60127
S11310001482158216821782711006C1E12CF12C0C
S1131010E701CC0FDD1FCE0DDF1DC658DF4F009159
S113102068001091690020916A0030916B00409132
S11310306C0050916D0060916E0070916F00809112
S11310407000ABD8688379838A83FFEFEF1AFF0AB5
S113105025E1E216F104E1F680C00F2EF5E1EF2E52
S1131060F12CF02DE701CC0FDD1FCE0DDF1DC6588E
S1131070DF4F009168001091690020916A0030915F
S11310806B0040916C0050916D0060916E00709106
S11310906F008091700081D8688379838A838FEF91
S11310A0E81AF80A9CE2E916F104E1F656C0E2E017
S11310B07E12B7C00F2EFCE2EF2EF12CF02DE701CB
S11310C0CC0FDD1FCE0DDF1DC658DF4F0091680029
S11310D01091690020916A0030916B0040916C007E
S11310E050916D0060916E0070916F00809170005E
S11310F054D8688379838A83FFEFEF1AFF0A21E4C7
S1131100E216F104E1F629C00F2EF1E4EF2EF12CE2
S1131110F02DE701CC0FDD1FCE0DDF1DC658DF4FCC
S1131120009168001091690020916A0030916B0071
S113113040916C0050916D0060916E0070916F0051
S1131140809170002AD8688379838A838FEFE81AA4
S1131150F80A96E5E916F104E1F6009160002091A1
S11311606100409162006091630080916400B7DE89
S113117062E071E08AE790E0EED786B38871883048
S113118049F486B388718830E1F37394E3E0E7159A
S113119008F4712C86B38871803109F0F0CE86B3DF
S11311A088718031E1F3711008C0809164008F5F11
S11311B08330E0F11092640016C0F1E07F1208C0A1
S11311C0809163008F5F8A30A0F110926300D7CEC4
S11311D022E0721208C0809162008F5F8A3060F151
S11311E010926200CCCE83E07812C9CE8091610067
S11311F08F5F8A3018F480936100C1CE1092610031
S1131200BECE2091610040916200609163008091A4
S11312106400DFD8789413C091E0791609F41DCFE7
S113122046CFE3E07E1609F46FCF97CF8093640036
S1131230DACF80936300A3CE80936200A0CEDF91C7
S1131240CF911F910F91FF90EF90DF90CF90BF90BF
S1131250AF909F908F907F905F904F9008958F9262
S11312609F92AF92BF92EF92FF920F931F93CF93EF
S1131270DF93E12CF12C89E0E1E7F0E0A8E6B0E0AF
S113128001900D928A95E1F7E701B7010F2C000C4C
S1131290880B990BB1D220E030E040E05FE38FD3BC
S11312A0209168003091690040916A0050916B0070
S11312B0A4D14B015C0120E030E04FE753E47BD341
S11312C018164CF08092680090926900A0926A000F
S11312D0B0926B000FC020E030E04FE753E4C5014B
S11312E0B4018AD1609368007093690080936A00A6
S11312F090936B00CE01880F991FC80FD91FC65851
S1131300DF4F009168001091690020916A003091CC
S11313106B0040916C0050916D0060916E00709173
S11313206F008091700039D7688379838A838FEF47
S1131330E81AF80A86E5E816F10409F09CCF20E0E3
S113134030E040E05FE36091710070917200809141
S113135073009091740051D14B015C0120E030E0A6
S11313604FE753E428D318164CF080927100909202
S11313707200A0927300B09274000FC020E030E0BD
S11313804FE753E4C501B40137D160937100709302
S113139072008093730090937400DF91CF911F913A
S11313A00F91FF90EF90BF90AF909F908F90089512
S11313B052D6C1E7D0E080E090E0A8EFB2E48883A1
S11313C09983AA83BB8380E090E0AFE7B3E48C8386
S11313D09D83AE83BF8381E0BDD7888785E08093FA
S11313E0640086E08093630087E08093620088E075
S11313F08093610088B3886188BB8BB780628BBFA0
S113140085B3886185BB78942ADF2FEF81EE94E061
S1131410215080409040E1F700C0000002D8A1D7DD
S1131420009160002091610040916200609163002E
S11314308091640054DD62E071E08AE790E08BD62D
S1131440E3CF6F927F928F929F92AF92BF92CF928F
S1131450DF92EF92FF920F931F93CF93DF93C8E62F
S1131460D0E0912C612C0F2EFFE77F2EF02D0F2E54
S1131470F3E48F2EF02D0F2EF1E7EF2EF0E0FF2E88
S1131480F02D0F2EF8EFAF2EF0E0BF2EF02D0F2E23
S1131490FBEFCF2EF0E0DF2EF02D86B3887109F438
S11314A05FC0DDDE2FEF81EE94E02150804090405C
S11314B0E1F700C00000B5D754D700916000209137
S11314C0610040916200609163008091640007DDD7
S11314D0188219821A821B82492D892D962DA72DD7
S11314E0B82D8C839D83AE83BF83F7018085888765
S11314F000E01091690020916A0030916B005091D6
S11315006D0060916E0070916F0047D6F5016083A5
S113151071838283009168001091690020916A00B0
S113152030916B0040916C0050916D0060916E00A1
S113153070916F008091700030D6F60160837183E2
S1131540828362E071E08AE790E005D686B3887111
S1131550803109F0A2CFF70180858B5F80879DCF12
S11315606091790081E0ECD6DF91CF911F910F91CA
S1131570FF90EF90DF90CF90BF90AF909F908F90AF
S11315807F906F9008951F920F920FB60F921124BF
S11315902F933F934F935F936F937F938F939F9377
S11315A0AF93BF93EF93FF932FEF83ED90E321501D
S11315B080409040E1F700C0000086B3887109F4D0
S11315C0BBD686B38871803109F4B4DC86B38871E4
S11315D0883009F436DFFF91EF91BF91AF919F916D
S11315E08F917F916F915F914F913F912F910F90C8
S11315F00FBE0F901F9018955058BB27AA270ED0E6
S113160089C17AD130F07FD120F031F49F3F11F4B9
S11316101EF46FC10EF4E095E7FB3CC1E92F8BD1BA
S113162080F3BA17620773078407950718F071F4FB
S11316309EF5BAC10EF4E0950B2EBA2FA02D0B0126
S1131640B90190010C01CA01A0011124FF27591B03
S113165099F0593F50F4503E68F11A16F040A22F09
S1131660232F342F4427585FF3CF4695379527957A
S1131670A795F0405395C9F77EF41F16BA0B620B79
S1131680730B840BBAF09150A1F0FF0FBB1F661FC0
S1131690771F881FC2F70EC0BA0F621F731F841F03
S11316A048F4879577956795B795F7959E3F08F029
S11316B0B3CF9395880F08F09927EE0F97958795E8
S11316C008950CD027C11FD140F016D130F021F479
S11316D05F3F19F0DFC0511168C10BC12CD198F3E1
S11316E09923C9F35523B1F3951B550BBB27AA279F
S11316F062177307840738F09F5F5F4F220F331F11
S1131700441FAA1FA9F333D00E2E3AF0E0E830D0DC
S113171091505040E695001CCAF729D0FE2F27D0DF
S1131720660F771F881FBB1F261737074807AB07AD
S1131730B0E809F0BB0B802DBF01FF2793585F4F22
S11317402AF09E3F510568F0A5C02FC15F3FECF31E
S1131750983EDCF3869577956795B795F7959F5FE7
S1131760C9F7880F911D9695879597F90895E1E03B
S1131770660F771F881FBB1F621773078407BA079A
S113178020F0621B730B840BBA0BEE1F88F7E095F5
S1131790089504D06894B11108C10895D4D088F094
S11317A09F5790F0B92F9927B751A0F0D1F0660F49
S11317B0771F881F991F1AF0BA95C9F712C0B13064
S11317C081F0F2D0B1E00895EFC0672F782F882719
S11317D0B85F39F0B93FCCF3869577956795B395A3
S11317E0D9F73EF490958095709561957F4F8F4F12
S11317F09F4F0895E89409C097FB3EF49095809517
S1131800709561957F4F8F4F9F4F9923A9F0F92FC2
S113181096E9BB279395F695879577956795B79540
S1131820F111F8CFFAF4BB0F11F460FF1BC06F5F26
S11318307F4F8F4F9F4F16C0882311F096E911C038
S1131840772321F09EE8872F762F05C0662371F059
S113185096E8862F70E060E02AF09A95660F771F6D
S1131860881FDAF7880F9695879597F9089585D09C
S113187080F09F3740F491110EF097C060E070E063
S113188080E89FEB089526F41B16611D711D811DD0
S113189007C021C097F99F6780E870E060E0089571
S11318A0882371F4772321F09850872B762F07C073
S11318B0662311F499270DC09051862B70E060E0E7
S11318C02AF09A95660F771F881FDAF7880F969586
S11318D0879597F908959F3F31F0915020F48795AB
S11318E077956795B795880F911D9695879597F984
S11318F008959FEF80EC089500240A9416161706A5
S113190018060906089500240A94121613061406EC
S113191005060895092E0394000C11F4882352F04F
S1131920BB0F40F4BF2B11F460FF04C06F5F7F4F07
S11319308F4F9F4F089557FD9058440F551F59F0EE
S11319405F3F71F04795880F97FB991F61F09F3FA8
S113195079F087950895121613061406551FF2CFD1
S11319604695F1DF08C0161617061806991FF1CF21
S113197086957105610508940895E5DFA0F0BEE73A
S1131980B91788F4BB279F3860F41616B11D672F6A
S1131990782F8827985FF7CF869577956795B11D3F
S11319A093959639C8F30895E894BB27662777275B
S11319B0CB0197F908956ED008F48FEF08950AD0FB
S11319C0A9CF9ADF28F09FDF18F0952309F062CFA2
S11319D090CFEBCFB0DFA8F39923D9F35523C9F304
S11319E0950F50E0551FAA27EE27FF27BB27002499
S11319F00894679520F4E20FF31FB41F0A1E220F08
S1131A00331F441FAA1F6695A9F7779530F4F30F87
S1131A10B41F0A1E121E08F46395330F441FAA1F35
S1131A20221F769599F7879520F4B40F0A1E121E8B
S1131A30631F440FAA1F221F331F8695A9F7862F01
S1131A40712D602D11249F5750408AF0E1F08823B6
S1131A504AF0EE0FFF1FBB1F661F771F881F9150B0
S1131A605040A9F79E3F510570F014CF9ECF5F3FC1
S1131A70ECF3983EDCF3869577956795B795F795E3
S1131A80E7959F5FC1F7FE2B880F911D969587956B
S1131A9097F90895990F0008550FAA0BE0E8FEEF97
S1131AA016161706E807F907C0F012161306E4071E
S1131AB0F50798F0621B730B840B950B39F40A2617
S1131AC061F0232B242B252B21F408950A2609F4F5
S1131AD0A140A6958FEF811D811D0895F894FFCF35
S9030000FC
