:100000000EC028C099C326C025C024C023C022C06A
:1000100021C020C01FC01EC01DC01CC01BC0112499
:100020001FBECFE5D2E0DEBFCDBF10E0A0E6B0E05E
:10003000E2E7F5E102C005900D92A037B107D9F7CC
:1000400022E0A0E7B0E001C01D92AE3BB207E1F7AD
:1000500016D78DCAD5CFCF93DF9300D000D0CDB7C0
:10006000DEB79A8389837C836B832B813C81898172
:100070009A8148E0B901CCD100000F900F900F9009
:100080000F90DF91CF910895CF93DF93CDB7DEB777
:10009000A4970FB6F894DEBF0FBECDBF6AA37BA3B3
:1000A0008CA38AA1882F90E0A0E0B0E0BC01CD0134
:1000B000DED8DC01CB0189839A83AB83BC838BA11F
:1000C000882F90E0A0E0B0E0BC01CD01D0D8DC01E9
:1000D000CB018D839E83AF83B8878CA1882F90E05E
:1000E000A0E0B0E0BC01CD01C2D8DC01CB01898722
:1000F0009A87AB87BC8720E030E04FE753E46D81FF
:100100007E818F8198851AD8DC01CB018D839E83F7
:10011000AF83B88720E030E04CE252E469817A8115
:100120008B819C810BD8DC01CB0189839A83AB83C3
:10013000BC8389819A81AB81BC81BC01CD01D4D8BB
:10014000DC01CB01BC01CD0161D8DC01CB019E8774
:100150008D878D859E85092E000CAA0BBB0BBC01DB
:10016000CD0187D8DC01CB019C01AD0169817A8189
:100170008B819C817AD7DC01CB018F87988BA98BEF
:10018000BA8B2D813E814F81588560E070E080E818
:100190009FE36BD7DC01CB0129853A854B855C85D4
:1001A000BC01CD016DD9DC01CB01BC01CD0133D83F
:1001B000DC01CB01882F90E0A0E0B0E0BC01CD01D4
:1001C00056D8DC01CB018B8B9C8BAD8BBE8B2F85E6
:1001D000388949895A896D817E818F81988550D966
:1001E000DC01CB019C01AD0160E070E080E89FE3A1
:1001F0003CD7DC01CB0129853A854B855C85BC0168
:10020000CD013ED9DC01CB01BC01CD0104D8DC011C
:10021000CB01882F90E0A0E0B0E0BC01CD0127D851
:10022000DC01CB018F8B988FA98FBA8F2F853889EE
:1002300049895A8960E070E080E89FE316D7DC01C5
:10024000CB012D813E814F815885BC01CD0118D94C
:10025000DC01CB019C01AD0160E070E080E89FE330
:1002600004D7DC01CB0129853A854B855C85BC012F
:10027000CD0106D9DC01CB01BC01CD01CCD7DC011D
:10028000CB01882F90E0A0E0B0E0BC01CD01EFD71A
:10029000DC01CB018B8F9C8FAD8FBE8F8D859E85B2
:1002A0008230910509F442C0833091052CF4009707
:1002B00059F0019711F185C08330910509F44FC0C1
:1002C000049709F465C07DC069857A858B859C8516
:1002D000A2D7DC01CB0188A36B8D7C8D8D8D9E8D8B
:1002E0009AD7DC01CB018F8F6B897C898D899E89A0
:1002F00092D7DC01CB0189A37DC06F89788D898D70
:100300009A8D89D7DC01CB0188A369857A858B8595
:100310009C8581D7DC01CB018F8F6B897C898D898E
:100320009E8979D7DC01CB0189A364C06B897C8964
:100330008D899E8970D7DC01CB0188A369857A8578
:100340008B859C8568D7DC01CB018F8F6B8D7C8D75
:100350008D8D9E8D60D7DC01CB0189A34BC06B894D
:100360007C898D899E8957D7DC01CB0188A36F8951
:10037000788D898D9A8D4FD7DC01CB018F8F698560
:100380007A858B859C8547D7DC01CB0189A332C058
:100390006B8D7C8D8D8D9E8D3ED7DC01CB0188A32E
:1003A0006B897C898D899E8936D7DC01CB018F8F43
:1003B00069857A858B859C852ED7DC01CB0189A345
:1003C00019C069857A858B859C8525D7DC01CB0191
:1003D00088A36B897C898D899E891DD7DC01CB011F
:1003E0008F8F6F89788D898D9A8D15D7DC01CB0120
:1003F00089A300008F8D98A1A9A1BC018A2FA49682
:100400000FB6F894DEBF0FBECDBFDF91CF91089538
:10041000CF93DF93CDB7DEB729970FB6F894DEBF41
:100420000FBECDBF9E838D8378876F83498787E317
:1004300090E027E330E0F90130812985232BFC018E
:1004400020838985282F209588E390E0FC01808116
:100450008223898388E390E0FC0180819985892B40
:1004600089878FE590E0FC0180818A83F8948F81F1
:1004700098859C012150310938872F8321E0892BF1
:1004800009F420E02223F1F08D819E819C012F5FF1
:100490003F4F3E832D83FC0180818B839B81298587
:1004A000398188E028BB000000C097FF38BB990F56
:1004B000000000C000C000C038BB00C08A9591F7A2
:1004C0008C83D5CF8FE590E02A81FC01208300004A
:1004D00029960FB6F894DEBF0FBECDBFDF91CF9146
:1004E00008950F931F93CF93DF9300D000D000D0D7
:1004F000CDB7DEB79E838D83198289818635A0F5BD
:100500008981282F30E0C901880F991F820F931F1E
:100510002D813E81820F931FFC0180819181A281F8
:100520008A839B83AC838C8190919102692F13D82D
:100530008C838981282F30E0C901880F991F820F91
:10054000931F8C0102571E4F8A819B81AC81BC0195
:100550008A2F9ADDA82FCB01F80180839183A28393
:1005600089818F5F8983C9CF62E071E08EE891E075
:1005700072DD000026960FB6F894DEBF0FBECDBF29
:10058000DF91CF911F910F910895CF93DF9300D00A
:10059000CDB7DEB719828981893088F58981282F06
:1005A00030E08981882F90E0805A9F4FFC01408184
:1005B000C901880F991F820F931F8F589F4FFC010D
:1005C00040838981282F30E0C901880F991F820F4D
:1005D000931F8E589F4F2FEFFC0120838981282F76
:1005E00030E0C901880F991F820F931F8D589F4FCC
:1005F0002FEFFC01208389818F5F8983CCCF1092FC
:100600008A001A828A818A30F0F48A81282F30E0A9
:10061000C901880F991F820F931F8B569D4F2FEF93
:10062000FC0120838A81282F30E0C901880F991F9F
:10063000820F931F8A569D4F2FEFFC0120838A81E2
:100640008F5F8A83DFCF00000F900F90DF91CF91F3
:100650000895CF93DF9300D0CDB7DEB789836A8347
:100660008CE390E0FC018081882F90E082709927D4
:1006700021E0892B09F420E0222309F0F1CF8FE358
:1006800090E0FC0110828EE390E02981FC01208340
:100690008DE390E02A81FC012083F8948CE390E0C4
:1006A0002CE330E0F90120812460FC0120838CE3FD
:1006B00090E02CE330E0F90120812260FC012083EE
:1006C000789400000F900F90DF91CF910895CF9311
:1006D000DF931F92CDB7DEB789838CE390E0FC01F6
:1006E0008081882F90E08270992721E0892B09F47E
:1006F00020E0222309F0F1CF8FE390E02981222F1F
:1007000030E0232F330F330BFC0120838EE390E086
:100710002981FC0120838CE390E02CE330E0F90197
:1007200020812160FC0120838DE390E0FC01808129
:100730000F90DF91CF9108951F920F9200905F006C
:100740000F9211242F933F934F935F936F937F9357
:100750008F939F93AF93BF93EF93FF93CF93DF93C9
:10076000CDB7DEB7ED97DEBFCDBF80919302882372
:1007700009F086C282E38093930286E390E0FC0155
:100780008081882F90E08470992721E0892B09F0DF
:1007900020E0222309F474C280E090E0AAE7B3E4E9
:1007A0008A879B87AC87BD8720E030E04AE755E425
:1007B0006A857B858C859D8563D6DC01CB018E8720
:1007C0009F87A88BB98B20E030E040E85FE36E851F
:1007D0007F8588899989AED488232CF481E090E0C4
:1007E0009B8B8A8B3AC020E03FEF4FE757E46E8542
:1007F0007F858889998940D6181634F520E030E045
:1008000040E251E46A857B858C859D8539D6DC0183
:10081000CB01BC01CD01FFD4DC01CB019B8B8A8BCA
:100820008A899B89892B19F180E991E09D8B8C8BBA
:100830008C899D890197F1F79D8B8C8B8A899B8987
:1008400001979B8B8A8BECCF6E857F8588899989F0
:10085000E2D4DC01CB019B8B8A8B8A899B899F8B9D
:100860008E8B8E899F890197F1F79F8B8E8B86E304
:1008700090E0FC018081882F90E08470992721E02E
:10088000892B09F420E0222389F0809192028F5F66
:100890008093920280919202853010F01092920221
:1008A00080919202682F86E0D4DEEAC186E390E070
:1008B000FC018081882F90E08470992721E0892BAA
:1008C00009F020E0222381F0809170008F5F8093F7
:1008D0007000809170008A3010F01092700080914A
:1008E0007000682F85E0B5DE86E390E0FC01808132
:1008F000882F90E08470992721E0892B09F020E06F
:10090000222309F452C180E090E0A8ECB2E48A838B
:100910009B83AC83BD832BEA3AEA4AEA50E46A81BE
:100920007B818C819D81ACD5DC01CB01888F998F37
:10093000AA8FBB8F20E030E040E850E46A817B81E1
:100940008C819D819DD5DC01CB018C8F9D8FAE8FDD
:10095000BF8F20E030E040E85FE3688D798D8A8DBD
:100960009B8DE8D388231CF481E088A3A7C020E0F6
:100970003FEF4FE757E46C8D7D8D8E8D9F8D7CD53D
:1009800018160CF074C020E030E04AE754E46A81A5
:100990007B818C819D81D2D3DC01CB0189A39AA379
:1009A000ABA3BCA320E030E04AE755E469A17AA1FB
:1009B0008BA19CA165D5DC01CB018DA39EA3AFA328
:1009C000B8A720E030E040E85FE36DA17EA18FA1F1
:1009D00098A5B0D388232CF481E090E09AA789A74A
:1009E0003BC020E03FEF4FE757E46DA17EA18FA110
:1009F00098A542D518163CF520E030E040E251E4DD
:100A000069A17AA18BA19CA13BD5DC01CB01BC01E2
:100A1000CD0101D4DC01CB019AA789A789A59AA5AC
:100A2000892B09F44BC080E991E09CA78BA78BA58B
:100A30009CA50197F1F79CA78BA789A59AA501977B
:100A40009AA789A7EBCF6DA17EA18FA198A5E3D32B
:100A5000DC01CB019AA789A789A59AA59EA78DA796
:100A60008DA59EA50197F1F79EA78DA727C020E031
:100A700030E04FE753E4688D798D8A8D9B8DFCD4EF
:100A80001816A4F46C8D7D8D8E8D9F8DC4D3DC01E2
:100A9000CB0198AB8FA78FA598A99AAB89AB89A9F1
:100AA0009AA90197F1F79AAB89AB0EC0688D798D41
:100AB0008A8D9B8DB0D3DC01CB0188A388A18BAB41
:100AC0008BA98A95F1F78BAB80917000882F90E00D
:100AD000805A9F4FFC0180818093B8028FEF8093F2
:100AE000B90280917000883011F41092B90280919F
:100AF0007000893021F48091B2028093B802809115
:100B00009102882F90E0092E000CAA0BBB0BBC01B0
:100B1000CD01AFD3DC01CB019C01AD0160E070E001
:100B20008FE793E40BD3DC01CB01BC01CD0173D380
:100B3000DC01CB018093BA028091B8029091B90296
:100B4000A091BA02BC018A2F9FDAA82FCB01809313
:100B5000BB029093BC02A093BD028091B2028F5F52
:100B60008093B202198289818635C8F48981282F41
:100B700030E0C901880F991F820F931F9C012257F3
:100B80003E4F8091BB029091BC02A091BD02F90141
:100B900080839183A28389818F5F8983E4CF62E020
:100BA00071E08EE891E057DA9FCE80E090E0A8E413
:100BB000B2E48E839F83A887B98720E030E04AE7BC
:100BC00055E46E817F81888599855AD4DC01CB01FB
:100BD0008CAB9DABAEABBFAB20E030E040E85FE359
:100BE0006CA97DA98EA99FA9A5D288232CF481E0A8
:100BF00090E099AF88AF3AC020E03FEF4FE757E46D
:100C00006CA97DA98EA99FA937D4181634F520E0C8
:100C100030E040E251E46E817F818885998530D44F
:100C2000DC01CB01BC01CD01F6D2DC01CB0199AFD7
:100C300088AF88AD99AD892B19F180E991E09BAF20
:100C40008AAF8AAD9BAD0197F1F79BAF8AAF88ADB4
:100C500099AD019799AF88AFECCF6CA97DA98EA90A
:100C60009FA9D9D2DC01CB0199AF88AF88AD99ADEE
:100C70009DAF8CAF8CAD9DAD0197F1F79DAF8CAF63
:100C80000000ED960FB6F894DEBF0FBECDBFDF912A
:100C9000CF91FF91EF91BF91AF919F918F917F91F4
:100CA0006F915F914F913F912F910F9000925F0054
:100CB0000F901F901895CF92DF92EF92FF92CF93F3
:100CC000DF93CDB7DEB72F970FB6F894DEBF0FBE18
:100CD000CDBF19828981863508F055C08091B20256
:100CE0009091B302A091B4028093B5029093B602A2
:100CF000A093B7028091B502882F90E0092E000CD6
:100D0000AA0BBB0BBC01CD01B4D26B017C01898164
:100D1000882F90E0092E000CAA0BBB0BBC01CD0163
:100D2000A8D2DC01CB0120E030E04CEC50E4BC0167
:100D3000CD01A6D3DC01CB019C01AD01C701B601F9
:100D400095D1DC01CB01BC01CD0165D2DC01CB0129
:100D50008093B5028981282F30E0C901880F991F3F
:100D6000820F931F9C0124573F4F8091B5029091B1
:100D7000B602A091B702F90180839183A283898191
:100D80008F5F8983A7CF80E090E0A0E8BFE38A83EC
:100D90009B83AC83BD8320E030E04AE755E46A8161
:100DA0007B818C819D816CD3DC01CB018E839F8301
:100DB000A887B98720E030E040E85FE36E817F815B
:100DC00088859985B7D188232CF481E090E09B87B2
:100DD0008A873AC020E03FEF4FE757E46E817F817A
:100DE0008885998549D3181634F520E030E040E233
:100DF00051E46A817B818C819D8142D3DC01CB01EE
:100E0000BC01CD0108D2DC01CB019B878A878A8592
:100E10009B85892B19F180E991E09D878C878C85D2
:100E20009D850197F1F79D878C878A859B85019722
:100E30009B878A87ECCF6E817F8188859985EBD1EE
:100E4000DC01CB019B878A878A859B859F878E875C
:100E50008E859F850197F1F79F878E878CE890E0BC
:100E600040DB00002F960FB6F894DEBF0FBECDBF5B
:100E7000DF91CF91FF90EF90DF90CF900895CF93C7
:100E8000DF93CDB7DEB760970FB6F894DEBF0FBE25
:100E9000CDBF8BE590E02BE530E0F90120812062A9
:100EA000FC01208385E390E025E330E0F901208117
:100EB0002460FC012083789488E390E028E330E00C
:100EC000F901308124E02327FC01208384E0FFDB4B
:100ED0008093900280919002863010F010929002E0
:100EE00086E0F5DB8093920280919202893010F0C7
:100EF0001092920285E0EBDB80937000809170008D
:100F00008B3010F01092700086E390E0FC0180813D
:100F1000882F90E08470992721E0892B09F020E048
:100F2000222381F0809190028F5F809390028091C4
:100F30009002863010F01092900280919002682FFB
:100F400084E087DB80919002882F90E087599F4F43
:100F5000FC0180818093910287E390E027E330E0F9
:100F6000F90120812860FC0120830FDB8CE780934E
:100F7000B2028FEF8093B3028AE08093B40284E0E0
:100F800089831A8298DE62E071E08EE891E063D88E
:100F900080E090E0A0EAB1E48B839C83AD83BE83C4
:100FA00020E030E04AE755E46B817C818D819E81B1
:100FB00067D2DC01CB018F839887A987BA8720E0AD
:100FC00030E040E85FE36F81788589859A85B2D00B
:100FD00088232CF481E090E09C878B873BC020E045
:100FE0003FEF4FE757E46F81788589859A8544D232
:100FF00018163CF520E030E040E251E46B817C8142
:101000008D819E813DD2DC01CB01BC01CD0103D19C
:10101000DC01CB019C878B878B859C85892B09F410
:10102000B1CF80E991E09E878D878D859E85019760
:10103000F1F79E878D878B859C8501979C878B8791
:10104000EBCF6F81788589859A85E5D0DC01CB016E
:101050009C878B878B859C85988B8F878F859889BC
:101060000197F1F7988B8F878DCF5058BB27AA2710
:101070000ED0B1C1A2D130F0A7D120F031F49F3F02
:1010800011F41EF497C10EF4E095E7FB64C1E92F5B
:10109000B3D180F3BA17620773078407950718F076
:1010A00071F49EF5E2C10EF4E0950B2EBA2FA02D3F
:1010B0000B01B90190010C01CA01A0011124FF2705
:1010C000591B99F0593F50F4503E68F11A16F04000
:1010D000A22F232F342F4427585FF3CF46953795FF
:1010E0002795A795F0405395C9F77EF41F16BA0BC4
:1010F000620B730B840BBAF09150A1F0FF0FBB1F72
:10110000661F771F881FC2F70EC0BA0F621F731FBA
:10111000841F48F4879577956795B795F7959E3F17
:1011200008F0B3CF9395880F08F09927EE0F9795A5
:1011300087950895ECD008F481E008950CD04BC158
:1011400043D140F03AD130F021F45F3F19F003C1B0
:1011500051118CC12FC150D198F39923C9F3552354
:10116000B1F3951B550BBB27AA276217730784079A
:1011700038F09F5F5F4F220F331F441FAA1FA9F350
:1011800033D00E2E3AF0E0E830D091505040E69542
:10119000001CCAF729D0FE2F27D0660F771F881FA3
:1011A000BB1F261737074807AB07B0E809F0BB0B92
:1011B000802DBF01FF2793585F4F2AF09E3F5105B6
:1011C00068F0C9C053C15F3FECF3983EDCF38695ED
:1011D00077956795B795F7959F5FC9F7880F911D2C
:1011E0009695879597F90895E1E0660F771F881F18
:1011F000BB1F621773078407BA0720F0621B730BCB
:10120000840BBA0BEE1F88F7E095089504D068941C
:10121000B1112CC10895F8D088F09F5790F0B92FE4
:101220009927B751A0F0D1F0660F771F881F991F3B
:101230001AF0BA95C9F712C0B13081F016D1B1E0F9
:10124000089513C1672F782F8827B85F39F0B93F09
:10125000CCF3869577956795B395D9F73EF490953D
:101260008095709561957F4F8F4F9F4F0895E894BB
:1012700009C097FB3EF490958095709561957F4FDE
:101280008F4F9F4F9923A9F0F92F96E9BB2793958C
:10129000F695879577956795B795F111F8CFFAF49C
:1012A000BB0F11F460FF1BC06F5F7F4F8F4F9F4FCD
:1012B00016C0882311F096E911C0772321F09EE82B
:1012C000872F762F05C0662371F096E8862F70E091
:1012D00060E02AF09A95660F771F881FDAF7880F6B
:1012E0009695879597F90895A9D080F09F3740F497
:1012F00091110EF0BBC060E070E080E89FEB0895B4
:1013000026F41B16611D711D811D2BC045C0990F50
:101310000008550FAA0BE0E8FEEF16161706E807BF
:10132000F907C0F012161306E407F50798F0621BE0
:10133000730B840B950B39F40A2661F0232B242BB5
:10134000252B21F408950A2609F4A140A6958FEFD4
:10135000811D811D089597F99F6780E870E060E026
:101360000895882371F4772321F09850872B762FE6
:1013700007C0662311F499270DC09051862B70E0A9
:1013800060E02AF09A95660F771F881FDAF7880FBA
:101390009695879597F908959F3F31F0915020F4E5
:1013A000879577956795B795880F911D9695879541
:1013B00097F908959FEF80EC089500240A9416167B
:1013C000170618060906089500240A941216130633
:1013D000140605060895092E0394000C11F48823C1
:1013E00052F0BB0F40F4BF2B11F460FF04C06F5FDD
:1013F0007F4F8F4F9F4F089557FD9058440F551FB3
:1014000059F05F3F71F04795880F97FB991F61F086
:101410009F3F79F087950895121613061406551FFD
:10142000F2CF4695F1DF08C0161617061806991F69
:10143000F1CF86957105610508940895E5DFA0F068
:10144000BEE7B91788F4BB279F3860F41616B11DA4
:10145000672F782F8827985FF7CF869577956795C0
:10146000B11D93959639C8F30895E894BB27662774
:101470007727CB0197F908954ADF08F48FEF089595
:101480000AD0A9CF9ADF28F09FDF18F0952309F042
:1014900062CF90CFEBCFB0DFA8F39923D9F35523D8
:1014A000C9F3950F50E0551FAA27EE27FF27BB274A
:1014B00000240894679520F4E20FF31FB41F0A1E5E
:1014C000220F331F441FAA1F6695A9F7779530F4A2
:1014D000F30FB41F0A1E121E08F46395330F441F46
:1014E000AA1F221F769599F7879520F4B40F0A1E3C
:1014F000121E631F440FAA1F221F331F8695A9F7D0
:10150000862F712D602D11249F5750408AF0E1F0F5
:1015100088234AF0EE0FFF1FBB1F661F771F881F2F
:1015200091505040A9F79E3F510570F014CF9ECFC7
:101530005F3FECF3983EDCF3869577956795B7951A
:10154000F795E7959F5FC1F7FE2B880F911D969544
:10155000879597F90895991B79E004C0991F96170C
:1015600008F0961B881F7A95C9F780950895F8941E
:02157000FFCFAB
:1015720000152A5580ABD5EAFF281E140A05020180
:00000001FF
